:100000000C9446000C9465000C9465000C946500FB
:100010000C9465000C9465000C9465000C946500CC
:100020000C9465000C9465000C9465000C946500BC
:100030000C9465000C94A7010C9465000C94650069
:100040000C9465000C9465000C9465000C9465009C
:100050000C9465000C9465000C9465000C9465008C
:100060000C9465000C9465000C9465000C9465007C
:100070000C9465000C9465000C9465000C9465006C
:100080000C9465000C9465000C94650011241FBE4F
:10009000CFEFD0E4DEBFCDBF11E0A0E0B1E0E4EDF2
:1000A000F6E000E00BBF02C007900D92AA31B10745
:1000B000D9F711E0AAE1B1E001C01D92A332B10766
:1000C000E1F70E94F9020C9468030C940000CF93AE
:1000D000DF93CDB7DEB781E00E948C00DF91CF9136
:1000E0000895CF93DF93CDB7DEB784E690E00E940A
:1000F0002C0188E30E948C0086E00E948C008FE037
:100100000E948C0081E00E948C008AE090E00E94B6
:100110002C01DF91CF910895CF93DF931F92CDB73C
:10012000DEB789838BE290E02BE230E0F901208199
:100130002F7BFC01208388E290E02981FC01208351
:100140008BE290E02BE230E0F90120812068FC0195
:10015000208300008BE290E02BE230E0F901208167
:100160002F77FC01208382E090E00E942C010F9009
:10017000DF91CF910895CF93DF931F92CDB7DEB774
:1001800089838BE290E02BE230E0F901208120644A
:10019000FC01208388E290E02981FC0120838BE22E
:1001A00090E02BE230E0F90120812068FC012083FF
:1001B00000008BE290E02BE230E0F90120812F7704
:1001C000FC01208381E090E00E942C010F90DF91E0
:1001D000CF910895CF93DF9300D000D0CDB7DEB795
:1001E0008A837C836B830E9467008A81898311C024
:1001F000898191E0980F99830E9416018B819C81DF
:100200009C012F5F3F4F3C832B83FC0180810E9428
:10021000BB008B819C81FC018081882349F70F9072
:100220000F900F900F90DF91CF910895CF93DF93B0
:100230001F92CDB7DEB789838981813128F4898106
:1002400081580E948C0004C0898181550E948C00D5
:100250000F90DF91CF910895CF93DF9300D000D01E
:1002600000D0CDB7DEB79E838D831A82198214C069
:100270001C821B8206C000008B819C8101969C839E
:100280008B838B819C81873023E09207A4F3898143
:100290009A8101969A83898329813A818D819E81F1
:1002A000281739072CF326960FB6F894DEBF0FBE39
:1002B000CDBFDF91CF910895CF93DF93CDB7DEB758
:1002C00081E890E02BE0FC01208388E890E02DE7B6
:1002D00030E0FC01318320838FE690E022E0FC01D6
:1002E000208384E890E0FC01118210828091020159
:1002F00090910301A0910401B091050180931C012C
:1003000090931D01A0931E01B0931F018FE590E013
:100310002FE530E0F90120812068FC012083DF9186
:10032000CF910895CF93DF93CDB7DEB781E890E00A
:10033000FC011082DF91CF910895CF93DF93CDB769
:10034000DEB781E080931B01DF91CF9108951F926A
:100350000F9200905F000F92112400905B000F92AB
:100360002F933F934F935F936F937F938F939F93BD
:10037000AF93BF93EF93FF93CF93DF93CDB7DEB7E8
:1003800080911C0190911D01A0911E01B0911F014F
:100390000197A109B10980931C0190931D01A093BD
:1003A0001E01B0931F0180911C0190911D01A0912D
:1003B0001E01B0911F010097A105B10591F40E94A3
:1003C0009D018091020190910301A0910401B091DF
:1003D000050180931C0190931D01A0931E01B09311
:1003E0001F01DF91CF91FF91EF91BF91AF919F914D
:1003F0008F917F916F915F914F913F912F910F90CE
:1004000000925B000F9000925F000F901F90189574
:10041000CF93DF9300D000D0CDB7DEB769837A8366
:100420008B839C8389819A81AB81BC8180930201FB
:1004300090930301A0930401B09305018091020100
:1004400090910301A0910401B091050180931C01DA
:1004500090931D01A0931E01B0931F010F900F9068
:100460000F900F90DF91CF910895CF93DF93CDB789
:10047000DEB780912001909121018130910529F111
:100480008130910548F08230910509F4A4C0833091
:10049000910509F480C0A9C085E290E021E0FC014B
:1004A000208381E090E090932101809320010E94BD
:1004B00067009091010180910001890F80931A01DA
:1004C00080911A010E94BB0090C085E290E0FC017F
:1004D00080818230E9F4809122018823C9F483E08D
:1004E00090E09093210180932001809101018F5F22
:1004F000809301019091010180910001890F809307
:100500001A010E94670080911A010E94BB006DC011
:1005100085E290E0FC0180818230D1F0809122015F
:100520008823B1F480910101882391F08091010129
:100530008150809301019091010180910001890F08
:1005400080931A010E94670080911A010E94BB00EB
:1005500085E290E0FC018081823031F085E290E01C
:10056000FC018081813051F485E290E025E230E0A9
:10057000F9012081220FFC0120830CC085E290E06C
:10058000FC018081843031F485E290E021E0FC01BF
:1005900020832BC02AC080910101893039F081E08D
:1005A00090E0909321018093200114C0809101017B
:1005B000893081F482E090E09093210180932001C2
:1005C0000E94670066E071E081E00E94EA001092FC
:1005D00001010BC00AC080E290E0FC018081882309
:1005E00021F410922101109220010000DF91CF919F
:1005F0000895CF93DF93CDB7DEB72D970FB6F8945C
:10060000DEBF0FBECDBF81E290E0FC01108282E22E
:1006100090E021E0FC01208384E290E02FEFFC01D8
:10062000208385E290E027E0FC01208387E290E0D0
:100630002FEFFC01208388E290E0FC0110828AE227
:1006400090E02FEFFC0120838BE290E0FC01108210
:100650006CE271E080E090E00E9408020E945C0180
:10066000109221011092200119828CE0EEE0F1E05D
:10067000DE01129601900D928A95E1F70E947100B9
:10068000CE010296BC0181E00E94EA000E94350280
:1006900080E290E0FC0180818093220111C0898179
:1006A000882371F480E290E0FC018081882341F48A
:1006B00080E290E0FC0180818093220181E08983C7
:1006C00080911B01882359F3198210921B01DECF00
:0406D000F894FFCFCC
:1006D40030050100000057494E4E4552210048653F
:0A06E4006C6C6F20576F726C64009D
:00000001FF
