:100000000C9446000C945D000C945D000C945D0013
:100010000C945D000C945D000C945D000C945D00EC
:100020000C945D000C945D000C945D000C945D00DC
:100030000C945D000C945D000C945D000C945D00CC
:100040000C945D000C945D000C945D000C945D00BC
:100050000C945D000C945D000C945D000C945D00AC
:100060000C945D000C945D000C945D000C945D009C
:100070000C945D000C945D000C945D000C945D008C
:100080000C945D000C945D000C945D0011241FBE67
:10009000CFEFD0E4DEBFCDBF11E0A0E0B1E0E2E2FF
:1000A000F1E000E00BBF02C007900D92AE30B10747
:1000B000D9F70E9476000C948F000C940000CF9327
:1000C000C82F8A3019F48DE00E945F009091C00023
:1000D00095FFFCCFC093C60080E090E0CF910895DB
:1000E000EAE7F0E08081806E808308958FEF81B928
:1000F00012B814B885B98AB91BB80E94700080B1D3
:10010000E8E7F0E080819181929582958F70892750
:100110009F7089272081318125B98BB9F1CFF8945F
:02012000FFCF0F
:0E01220000000002000000005F00000000006E
:00000001FF
